{
  "contractName": "FlightEventRegistry",
  "abi": [
    {
      "inputs": [],
      "stateMutability": "nonpayable",
      "type": "constructor"
    },
    {
      "anonymous": false,
      "inputs": [
        {
          "indexed": true,
          "internalType": "address",
          "name": "backend",
          "type": "address"
        }
      ],
      "name": "BackendAuthorized",
      "type": "event"
    },
    {
      "anonymous": false,
      "inputs": [
        {
          "indexed": true,
          "internalType": "uint256",
          "name": "eventIndex",
          "type": "uint256"
        },
        {
          "indexed": false,
          "internalType": "string",
          "name": "flightId",
          "type": "string"
        },
        {
          "indexed": false,
          "internalType": "string",
          "name": "eventType",
          "type": "string"
        },
        {
          "indexed": false,
          "internalType": "uint256",
          "name": "timestamp",
          "type": "uint256"
        },
        {
          "indexed": false,
          "internalType": "bytes32",
          "name": "dataHash",
          "type": "bytes32"
        },
        {
          "indexed": false,
          "internalType": "uint256",
          "name": "blockNumber",
          "type": "uint256"
        }
      ],
      "name": "EventRecorded",
      "type": "event"
    },
    {
      "anonymous": false,
      "inputs": [
        {
          "indexed": true,
          "internalType": "address",
          "name": "previousOwner",
          "type": "address"
        },
        {
          "indexed": true,
          "internalType": "address",
          "name": "newOwner",
          "type": "address"
        }
      ],
      "name": "OwnershipTransferred",
      "type": "event"
    },
    {
      "inputs": [],
      "name": "authorizedBackend",
      "outputs": [
        {
          "internalType": "address",
          "name": "",
          "type": "address"
        }
      ],
      "stateMutability": "view",
      "type": "function",
      "constant": true
    },
    {
      "inputs": [
        {
          "internalType": "uint256",
          "name": "",
          "type": "uint256"
        }
      ],
      "name": "events",
      "outputs": [
        {
          "internalType": "string",
          "name": "flightId",
          "type": "string"
        },
        {
          "internalType": "string",
          "name": "eventType",
          "type": "string"
        },
        {
          "internalType": "uint256",
          "name": "timestamp",
          "type": "uint256"
        },
        {
          "internalType": "string",
          "name": "actor",
          "type": "string"
        },
        {
          "internalType": "bytes32",
          "name": "dataHash",
          "type": "bytes32"
        },
        {
          "internalType": "uint256",
          "name": "blockNumber",
          "type": "uint256"
        },
        {
          "internalType": "uint256",
          "name": "recordedAt",
          "type": "uint256"
        }
      ],
      "stateMutability": "view",
      "type": "function",
      "constant": true
    },
    {
      "inputs": [
        {
          "internalType": "string",
          "name": "",
          "type": "string"
        },
        {
          "internalType": "uint256",
          "name": "",
          "type": "uint256"
        }
      ],
      "name": "flightEventIndices",
      "outputs": [
        {
          "internalType": "uint256",
          "name": "",
          "type": "uint256"
        }
      ],
      "stateMutability": "view",
      "type": "function",
      "constant": true
    },
    {
      "inputs": [
        {
          "internalType": "bytes32",
          "name": "",
          "type": "bytes32"
        }
      ],
      "name": "hashExists",
      "outputs": [
        {
          "internalType": "bool",
          "name": "",
          "type": "bool"
        }
      ],
      "stateMutability": "view",
      "type": "function",
      "constant": true
    },
    {
      "inputs": [],
      "name": "owner",
      "outputs": [
        {
          "internalType": "address",
          "name": "",
          "type": "address"
        }
      ],
      "stateMutability": "view",
      "type": "function",
      "constant": true
    },
    {
      "inputs": [],
      "name": "totalEventsRecorded",
      "outputs": [
        {
          "internalType": "uint256",
          "name": "",
          "type": "uint256"
        }
      ],
      "stateMutability": "view",
      "type": "function",
      "constant": true
    },
    {
      "inputs": [
        {
          "internalType": "address",
          "name": "_backend",
          "type": "address"
        }
      ],
      "name": "authorizeBackend",
      "outputs": [],
      "stateMutability": "nonpayable",
      "type": "function"
    },
    {
      "inputs": [
        {
          "internalType": "address",
          "name": "_newOwner",
          "type": "address"
        }
      ],
      "name": "transferOwnership",
      "outputs": [],
      "stateMutability": "nonpayable",
      "type": "function"
    },
    {
      "inputs": [
        {
          "internalType": "string",
          "name": "_flightId",
          "type": "string"
        },
        {
          "internalType": "string",
          "name": "_eventType",
          "type": "string"
        },
        {
          "internalType": "uint256",
          "name": "_timestamp",
          "type": "uint256"
        },
        {
          "internalType": "string",
          "name": "_actor",
          "type": "string"
        },
        {
          "internalType": "bytes32",
          "name": "_dataHash",
          "type": "bytes32"
        }
      ],
      "name": "recordEvent",
      "outputs": [
        {
          "internalType": "uint256",
          "name": "",
          "type": "uint256"
        }
      ],
      "stateMutability": "nonpayable",
      "type": "function"
    },
    {
      "inputs": [
        {
          "internalType": "string[]",
          "name": "_flightIds",
          "type": "string[]"
        },
        {
          "internalType": "string[]",
          "name": "_eventTypes",
          "type": "string[]"
        },
        {
          "internalType": "uint256[]",
          "name": "_timestamps",
          "type": "uint256[]"
        },
        {
          "internalType": "string[]",
          "name": "_actors",
          "type": "string[]"
        },
        {
          "internalType": "bytes32[]",
          "name": "_dataHashes",
          "type": "bytes32[]"
        }
      ],
      "name": "recordEvents",
      "outputs": [
        {
          "internalType": "uint256",
          "name": "",
          "type": "uint256"
        }
      ],
      "stateMutability": "nonpayable",
      "type": "function"
    },
    {
      "inputs": [],
      "name": "getTotalEvents",
      "outputs": [
        {
          "internalType": "uint256",
          "name": "",
          "type": "uint256"
        }
      ],
      "stateMutability": "view",
      "type": "function",
      "constant": true
    },
    {
      "inputs": [
        {
          "internalType": "string",
          "name": "_flightId",
          "type": "string"
        }
      ],
      "name": "getFlightEventCount",
      "outputs": [
        {
          "internalType": "uint256",
          "name": "",
          "type": "uint256"
        }
      ],
      "stateMutability": "view",
      "type": "function",
      "constant": true
    },
    {
      "inputs": [
        {
          "internalType": "uint256",
          "name": "_index",
          "type": "uint256"
        }
      ],
      "name": "getEvent",
      "outputs": [
        {
          "internalType": "string",
          "name": "flightId",
          "type": "string"
        },
        {
          "internalType": "string",
          "name": "eventType",
          "type": "string"
        },
        {
          "internalType": "uint256",
          "name": "timestamp",
          "type": "uint256"
        },
        {
          "internalType": "string",
          "name": "actor",
          "type": "string"
        },
        {
          "internalType": "bytes32",
          "name": "dataHash",
          "type": "bytes32"
        },
        {
          "internalType": "uint256",
          "name": "blockNumber",
          "type": "uint256"
        },
        {
          "internalType": "uint256",
          "name": "recordedAt",
          "type": "uint256"
        }
      ],
      "stateMutability": "view",
      "type": "function",
      "constant": true
    },
    {
      "inputs": [
        {
          "internalType": "string",
          "name": "_flightId",
          "type": "string"
        }
      ],
      "name": "getFlightEventIndices",
      "outputs": [
        {
          "internalType": "uint256[]",
          "name": "",
          "type": "uint256[]"
        }
      ],
      "stateMutability": "view",
      "type": "function",
      "constant": true
    },
    {
      "inputs": [
        {
          "internalType": "bytes32",
          "name": "_dataHash",
          "type": "bytes32"
        }
      ],
      "name": "verifyHash",
      "outputs": [
        {
          "internalType": "bool",
          "name": "",
          "type": "bool"
        }
      ],
      "stateMutability": "view",
      "type": "function",
      "constant": true
    },
    {
      "inputs": [
        {
          "internalType": "string",
          "name": "_flightId",
          "type": "string"
        },
        {
          "internalType": "uint256",
          "name": "_start",
          "type": "uint256"
        },
        {
          "internalType": "uint256",
          "name": "_count",
          "type": "uint256"
        }
      ],
      "name": "getFlightEvents",
      "outputs": [
        {
          "components": [
            {
              "internalType": "string",
              "name": "flightId",
              "type": "string"
            },
            {
              "internalType": "string",
              "name": "eventType",
              "type": "string"
            },
            {
              "internalType": "uint256",
              "name": "timestamp",
              "type": "uint256"
            },
            {
              "internalType": "string",
              "name": "actor",
              "type": "string"
            },
            {
              "internalType": "bytes32",
              "name": "dataHash",
              "type": "bytes32"
            },
            {
              "internalType": "uint256",
              "name": "blockNumber",
              "type": "uint256"
            },
            {
              "internalType": "uint256",
              "name": "recordedAt",
              "type": "uint256"
            }
          ],
          "internalType": "struct FlightEventRegistry.FlightEvent[]",
          "name": "",
          "type": "tuple[]"
        }
      ],
      "stateMutability": "view",
      "type": "function",
      "constant": true
    }
  ],
  "bytecode": "0x608060405234801561001057600080fd5b5060008054336001600160a01b03199182168117835560018054909216179055611a6890819061004090396000f3fe608060405234801561001057600080fd5b50600436106100ff5760003560e01c80637e5f58fc11610097578063c485ab1e11610066578063c485ab1e1461024b578063cdaedb1214610260578063ef020f4a14610273578063f2fde38b1461029657600080fd5b80637e5f58fc146101c55780638da5cb5b146101e5578063b535b5c3146101f8578063bd4fa79f1461022b57600080fd5b806352534bc7116100d357806352534bc71461018457806361606940146101975780636d1884e01461019f5780637677c57b146101b257600080fd5b8062590ee2146101045780630b791430146101205780633a5d2a201461014657806349430bcf14610159575b600080fd5b61010d60055481565b6040519081526020015b60405180910390f35b61013361012e3660046111ab565b6102a9565b6040516101179796959493929190611214565b61010d61015436600461132a565b610493565b60015461016c906001600160a01b031681565b6040516001600160a01b039091168152602001610117565b61010d6101923660046113c4565b6104ae565b60025461010d565b6101336101ad3660046111ab565b6104d6565b61010d6101c0366004611401565b61073e565b6101d86101d3366004611446565b61077e565b6040516101179190611494565b60005461016c906001600160a01b031681565b61021b6102063660046111ab565b60046020526000908152604090205460ff1681565b6040519015158152602001610117565b61023e6102393660046113c4565b610b20565b604051610117919061155e565b61025e6102593660046115a2565b610b90565b005b61010d61026e3660046116d6565b610c5a565b61021b6102813660046111ab565b60009081526004602052604090205460ff1690565b61025e6102a43660046115a2565b610d95565b600281815481106102b957600080fd5b90600052602060002090600702016000915090508060000180546102dc906117a8565b80601f0160208091040260200160405190810160405280929190818152602001828054610308906117a8565b80156103555780601f1061032a57610100808354040283529160200191610355565b820191906000526020600020905b81548152906001019060200180831161033857829003601f168201915b50505050509080600101805461036a906117a8565b80601f0160208091040260200160405190810160405280929190818152602001828054610396906117a8565b80156103e35780601f106103b8576101008083540402835291602001916103e3565b820191906000526020600020905b8154815290600101906020018083116103c657829003601f168201915b5050505050908060020154908060030180546103fe906117a8565b80601f016020809104026020016040519081016040528092919081815260200182805461042a906117a8565b80156104775780601f1061044c57610100808354040283529160200191610477565b820191906000526020600020905b81548152906001019060200180831161045a57829003601f168201915b5050505050908060040154908060050154908060060154905087565b60006104a28686868686610e70565b90505b95945050505050565b60006003826040516104c091906117e2565b9081526040519081900360200190205492915050565b606080600060606000806000600280549050881061053b5760405162461bcd60e51b815260206004820152601960248201527f4576656e7420696e646578206f7574206f6620626f756e64730000000000000060448201526064015b60405180910390fd5b600060028981548110610550576105506117fe565b90600052602060002090600702019050806000018160010182600201548360030184600401548560050154866006015486805461058c906117a8565b80601f01602080910402602001604051908101604052809291908181526020018280546105b8906117a8565b80156106055780601f106105da57610100808354040283529160200191610605565b820191906000526020600020905b8154815290600101906020018083116105e857829003601f168201915b50505050509650858054610618906117a8565b80601f0160208091040260200160405190810160405280929190818152602001828054610644906117a8565b80156106915780601f1061066657610100808354040283529160200191610691565b820191906000526020600020905b81548152906001019060200180831161067457829003601f168201915b505050505095508380546106a4906117a8565b80601f01602080910402602001604051908101604052809291908181526020018280546106d0906117a8565b801561071d5780601f106106f25761010080835404028352916020019161071d565b820191906000526020600020905b81548152906001019060200180831161070057829003601f168201915b50505050509350975097509750975097509750975050919395979092949650565b8151602081840181018051600382529282019185019190912091905280548290811061076957600080fd5b90600052602060002001600091509150505481565b6060600060038560405161079291906117e2565b908152604051908190036020019020805490915084106107f45760405162461bcd60e51b815260206004820152601960248201527f537461727420696e646578206f7574206f6620626f756e6473000000000000006044820152606401610532565b6000610800848661182a565b8254909150811115610810575080545b600061081c8683611843565b67ffffffffffffffff81111561083457610834611273565b6040519080825280602002602001820160405280156108a857816020015b6108956040518060e00160405280606081526020016060815260200160008152602001606081526020016000801916815260200160008152602001600081525090565b8152602001906001900390816108525790505b509050855b82811015610b155760028482815481106108c9576108c96117fe565b9060005260206000200154815481106108e4576108e46117fe565b90600052602060002090600702016040518060e001604052908160008201805461090d906117a8565b80601f0160208091040260200160405190810160405280929190818152602001828054610939906117a8565b80156109865780601f1061095b57610100808354040283529160200191610986565b820191906000526020600020905b81548152906001019060200180831161096957829003601f168201915b5050505050815260200160018201805461099f906117a8565b80601f01602080910402602001604051908101604052809291908181526020018280546109cb906117a8565b8015610a185780601f106109ed57610100808354040283529160200191610a18565b820191906000526020600020905b8154815290600101906020018083116109fb57829003601f168201915b5050505050815260200160028201548152602001600382018054610a3b906117a8565b80601f0160208091040260200160405190810160405280929190818152602001828054610a67906117a8565b8015610ab45780601f10610a8957610100808354040283529160200191610ab4565b820191906000526020600020905b815481529060010190602001808311610a9757829003601f168201915b5050509183525050600482015460208201526005820154604082015260069091015460609091015282610ae78984611843565b81518110610af757610af76117fe565b60200260200101819052508080610b0d90611856565b9150506108ad565b509695505050505050565b6060600382604051610b3291906117e2565b9081526040805191829003602090810183208054808302850183019093528284529190830182828015610b8457602002820191906000526020600020905b815481526020019060010190808311610b70575b50505050509050919050565b6000546001600160a01b03163314610bba5760405162461bcd60e51b81526004016105329061186f565b6001600160a01b038116610c105760405162461bcd60e51b815260206004820152601760248201527f496e76616c6964206261636b656e6420616464726573730000000000000000006044820152606401610532565b600180546001600160a01b0319166001600160a01b0383169081179091556040517fcaac1cded5f66c118ba915f0fc60cd20a0924fcf956320b5230e70c8d5a773ca90600090a250565b60008451865114610c7d5760405162461bcd60e51b8152600401610532906118b0565b8351865114610c9e5760405162461bcd60e51b8152600401610532906118b0565b8251865114610cbf5760405162461bcd60e51b8152600401610532906118b0565b8151865114610ce05760405162461bcd60e51b8152600401610532906118b0565b60005b8651811015610d8957610d76878281518110610d0157610d016117fe565b6020026020010151878381518110610d1b57610d1b6117fe565b6020026020010151878481518110610d3557610d356117fe565b6020026020010151878581518110610d4f57610d4f6117fe565b6020026020010151878681518110610d6957610d696117fe565b6020026020010151610e70565b5080610d8181611856565b915050610ce3565b50509351949350505050565b6000546001600160a01b03163314610dbf5760405162461bcd60e51b81526004016105329061186f565b6001600160a01b038116610e155760405162461bcd60e51b815260206004820152601960248201527f496e76616c6964206e6577206f776e65722061646472657373000000000000006044820152606401610532565b600080546040516001600160a01b03808516939216917f8be0079c531659141344cd1fd0a4f28419497f9722a3daafe3b4186f6b6457e091a3600080546001600160a01b0319166001600160a01b0392909216919091179055565b600080865111610ec25760405162461bcd60e51b815260206004820152601960248201527f466c696768742049442063616e6e6f7420626520656d707479000000000000006044820152606401610532565b6000855111610f135760405162461bcd60e51b815260206004820152601a60248201527f4576656e7420747970652063616e6e6f7420626520656d7074790000000000006044820152606401610532565b60008411610f575760405162461bcd60e51b81526020600482015260116024820152700496e76616c69642074696d657374616d7607c1b6044820152606401610532565b81610fa45760405162461bcd60e51b815260206004820152601960248201527f4461746120686173682063616e6e6f7420626520656d707479000000000000006044820152606401610532565b60008281526004602052604090205460ff1615610fc3575060006104a5565b60008281526004602052604090205460ff161561102e5760405162461bcd60e51b815260206004820152602360248201527f4576656e7420776974682074686973206861736820616c72656164792065786960448201526273747360e81b6064820152608401610532565b600280546040805160e0810182528981526020810189905290810187905260608101869052608081018590524360a08201524260c08201526001820183556000929092528151909190600783027f405787fa12a823e0f2b7631cc41b3ba8828b3321ca811111fa75cd3aa3bb5ace019081906110aa908261192f565b50602082015160018201906110bf908261192f565b5060408201516002820155606082015160038201906110de908261192f565b506080820151816004015560a0820151816005015560c08201518160060155505060038760405161110f91906117e2565b908152604080516020928190038301902080546001808201835560009283528483209091018590558682526004909352908120805460ff1916909217909155600580549161115c83611856565b9190505550807febd82a22819416a1038895b79ed8e08c941e5f70ed31056dccad3f1e26aec98488888887436040516111999594939291906119ef565b60405180910390a29695505050505050565b6000602082840312156111bd57600080fd5b5035919050565b60005b838110156111df5781810151838201526020016111c7565b50506000910152565b600081518084526112008160208601602086016111c4565b601f01601f19169290920160200192915050565b60e08152600061122760e083018a6111e8565b8281036020840152611239818a6111e8565b9050876040840152828103606084015261125381886111e8565b6080840196909652505060a081019290925260c090910152949350505050565b634e487b7160e01b600052604160045260246000fd5b604051601f8201601f1916810167ffffffffffffffff811182821017156112b2576112b2611273565b604052919050565b600082601f8301126112cb57600080fd5b813567ffffffffffffffff8111156112e5576112e5611273565b6112f8601f8201601f1916602001611289565b81815284602083860101111561130d57600080fd5b816020850160208301376000918101602001919091529392505050565b600080600080600060a0868803121561134257600080fd5b853567ffffffffffffffff8082111561135a57600080fd5b61136689838a016112ba565b9650602088013591508082111561137c57600080fd5b61138889838a016112ba565b95506040880135945060608801359150808211156113a557600080fd5b506113b2888289016112ba565b95989497509295608001359392505050565b6000602082840312156113d657600080fd5b813567ffffffffffffffff8111156113ed57600080fd5b6113f9848285016112ba565b949350505050565b6000806040838503121561141457600080fd5b823567ffffffffffffffff81111561142b57600080fd5b611437858286016112ba565b95602094909401359450505050565b60008060006060848603121561145b57600080fd5b833567ffffffffffffffff81111561147257600080fd5b61147e868287016112ba565b9660208601359650604090950135949350505050565b60006020808301818452808551808352604092508286019150828160051b87010184880160005b8381101561155057603f19898403018552815160e081518186526114e1828701826111e8565b915050888201518582038a8701526114f982826111e8565b91505087820151888601526060808301518683038288015261151b83826111e8565b6080858101519089015260a0808601519089015260c094850151949097019390935250505093860193908601906001016114bb565b509098975050505050505050565b6020808252825182820181905260009190848201906040850190845b818110156115965783518352928401929184019160010161157a565b50909695505050505050565b6000602082840312156115b457600080fd5b81356001600160a01b03811681146115cb57600080fd5b9392505050565b600067ffffffffffffffff8211156115ec576115ec611273565b5060051b60200190565b600082601f83011261160757600080fd5b8135602061161c611617836115d2565b611289565b82815260059290921b8401810191818101908684111561163b57600080fd5b8286015b84811015610b1557803567ffffffffffffffff81111561165f5760008081fd5b61166d8986838b01016112ba565b84525091830191830161163f565b600082601f83011261168c57600080fd5b8135602061169c611617836115d2565b82815260059290921b840181019181810190868411156116bb57600080fd5b8286015b84811015610b1557803583529183019183016116bf565b600080600080600060a086880312156116ee57600080fd5b853567ffffffffffffffff8082111561170657600080fd5b61171289838a016115f6565b9650602088013591508082111561172857600080fd5b61173489838a016115f6565b9550604088013591508082111561174a57600080fd5b61175689838a0161167b565b9450606088013591508082111561176c57600080fd5b61177889838a016115f6565b9350608088013591508082111561178e57600080fd5b5061179b8882890161167b565b9150509295509295909350565b600181811c908216806117bc57607f821691505b6020821081036117dc57634e487b7160e01b600052602260045260246000fd5b50919050565b600082516117f48184602087016111c4565b9190910192915050565b634e487b7160e01b600052603260045260246000fd5b634e487b7160e01b600052601160045260246000fd5b8082018082111561183d5761183d611814565b92915050565b8181038181111561183d5761183d611814565b60006001820161186857611868611814565b5060010190565b60208082526021908201527f4f6e6c79206f776e65722063616e2063616c6c20746869732066756e6374696f6040820152603760f91b606082015260800190565b602080825260169082015275082e4e4c2f240d8cadccee8d0e640dad2e6dac2e8c6d60531b604082015260600190565b601f82111561192a57600081815260208120601f850160051c810160208610156119075750805b601f850160051c820191505b8181101561192657828155600101611913565b5050505b505050565b815167ffffffffffffffff81111561194957611949611273565b61195d8161195784546117a8565b846118e0565b602080601f831160018114611992576000841561197a5750858301515b600019600386901b1c1916600185901b178555611926565b600085815260208120601f198616915b828110156119c1578886015182559484019460019091019084016119a2565b50858210156119df5787850151600019600388901b60f8161c191681555b5050505050600190811b01905550565b60a081526000611a0260a08301886111e8565b8281036020840152611a1481886111e8565b6040840196909652505060608101929092526080909101529291505056fea26469706673582212201cc4b5d5d14d02ddfbf41656e994741f72adc533a3870dd87ebe7789f2c1ba2464736f6c63430008130033",
  "immutableReferences": {},
  "source": "// SPDX-License-Identifier: MIT\npragma solidity ^0.8.19;\n\n/**\n * @title FlightEventRegistry\n * @dev Stores flight event hashes on-chain for verification purposes.\n * Full event data remains off-chain in the MySQL database.\n * Only the backend service can write to this contract.\n */\ncontract FlightEventRegistry {\n    // ============ Structs ============\n\n    struct FlightEvent {\n        string flightId;        // Flight identifier (e.g., \"UA123\")\n        string eventType;       // Event type (e.g., \"DEPARTURE\", \"ARRIVAL\", \"GATE_CHANGE\")\n        uint256 timestamp;      // Unix timestamp of the event\n        string actor;           // Actor responsible (e.g., \"ATC\", \"AIRLINE\", \"SYSTEM\")\n        bytes32 dataHash;       // SHA256 hash of the full event payload\n        uint256 blockNumber;    // Block number when recorded\n        uint256 recordedAt;     // Timestamp when recorded on-chain\n    }\n\n    // ============ State Variables ============\n\n    address public owner;\n    address public authorizedBackend;\n    \n    FlightEvent[] public events;\n    mapping(string => uint256[]) public flightEventIndices;\n    mapping(bytes32 => bool) public hashExists;\n    \n    uint256 public totalEventsRecorded;\n\n    // ============ Events ============\n\n    event EventRecorded(\n        uint256 indexed eventIndex,\n        string flightId,\n        string eventType,\n        uint256 timestamp,\n        bytes32 dataHash,\n        uint256 blockNumber\n    );\n\n    event BackendAuthorized(address indexed backend);\n    event OwnershipTransferred(address indexed previousOwner, address indexed newOwner);\n\n    // ============ Modifiers ============\n\n    modifier onlyOwner() {\n        require(msg.sender == owner, \"Only owner can call this function\");\n        _;\n    }\n\n    modifier onlyAuthorized() {\n        require(\n            msg.sender == owner || msg.sender == authorizedBackend,\n            \"Not authorized to record events\"\n        );\n        _;\n    }\n\n    // ============ Constructor ============\n\n    constructor() {\n        owner = msg.sender;\n        authorizedBackend = msg.sender; // Initially, owner is the authorized backend\n    }\n\n    // ============ Admin Functions ============\n\n    /**\n     * @dev Authorize a backend address to record events\n     * @param _backend Address of the backend service\n     */\n    function authorizeBackend(address _backend) external onlyOwner {\n        require(_backend != address(0), \"Invalid backend address\");\n        authorizedBackend = _backend;\n        emit BackendAuthorized(_backend);\n    }\n\n    /**\n     * @dev Transfer ownership of the contract\n     * @param _newOwner Address of the new owner\n     */\n    function transferOwnership(address _newOwner) external onlyOwner {\n        require(_newOwner != address(0), \"Invalid new owner address\");\n        emit OwnershipTransferred(owner, _newOwner);\n        owner = _newOwner;\n    }\n\n    // ============ Core Functions ============\n\n    /**\n     * @dev Record a new flight event on-chain\n     * @param _flightId Flight identifier\n     * @param _eventType Type of event\n     * @param _timestamp Unix timestamp of the event\n     * @param _actor Actor responsible for the event\n     * @param _dataHash SHA256 hash of the full event payload\n     * @return eventIndex The index of the recorded event\n     * \n     * NOTE: Public function - any user can record events. This allows MetaMask users\n     * to pay for their own gas when recording flight events.\n     */\n    function recordEvent(\n        string memory _flightId,\n        string memory _eventType,\n        uint256 _timestamp,\n        string memory _actor,\n        bytes32 _dataHash\n    ) external returns (uint256) {\n        return _recordEvent(_flightId, _eventType, _timestamp, _actor, _dataHash);\n    }\n\n\n    /**\n     * @dev Record multiple flight events in a single transaction\n     * @param _flightIds Array of flight identifiers\n     * @param _eventTypes Array of event types\n     * @param _timestamps Array of unix timestamps\n     * @param _actors Array of actors\n     * @param _dataHashes Array of data hashes\n     * @return count Number of events recorded\n     */\n    function recordEvents(\n        string[] memory _flightIds,\n        string[] memory _eventTypes,\n        uint256[] memory _timestamps,\n        string[] memory _actors,\n        bytes32[] memory _dataHashes\n    ) external returns (uint256) {\n        require(_flightIds.length == _eventTypes.length, \"Array lengths mismatch\");\n        require(_flightIds.length == _timestamps.length, \"Array lengths mismatch\");\n        require(_flightIds.length == _actors.length, \"Array lengths mismatch\");\n        require(_flightIds.length == _dataHashes.length, \"Array lengths mismatch\");\n        \n        for (uint256 i = 0; i < _flightIds.length; i++) {\n            // Inline logic of recordEvent to save gas (internal calls are cheaper but duplication is fine here)\n            // We'll just call the internal logic. Refactoring to internal function would be cleaner \n            // but let's keep it simple and just call the logic or create private helper.\n            // Since this is a simple contract, I'll allow calling the logic directly.\n            // Actually, calling the public function `recordEvent` internally uses `this.recordEvent` which is an external call (expensive).\n            // Better to refactor `recordEvent` to call an internal `_recordEvent`.\n            _recordEvent(_flightIds[i], _eventTypes[i], _timestamps[i], _actors[i], _dataHashes[i]);\n        }\n        \n        return _flightIds.length;\n    }\n\n    function _recordEvent(\n        string memory _flightId,\n        string memory _eventType,\n        uint256 _timestamp,\n        string memory _actor,\n        bytes32 _dataHash\n    ) internal returns (uint256) {\n        require(bytes(_flightId).length > 0, \"Flight ID cannot be empty\");\n        require(bytes(_eventType).length > 0, \"Event type cannot be empty\");\n        require(_timestamp > 0, \"Invalid timestamp\");\n        require(_dataHash != bytes32(0), \"Data hash cannot be empty\");\n        // Skip duplicate check if we want to allow re-recording or check here? \n        // Original required !hashExists. Let's keep it.\n        if (hashExists[_dataHash]) {\n            return 0; // Skip duplicates silently in batch to prevent revert of whole batch? \n            // Or revert? Usually batch should probably succeed for valid ones. \n            // But for now let's strict revert to ensure integrity, or require off-chain filtering.\n            // The user wants to \"make sure all 12 things are getting logged\". \n            // If one fails, maybe we shouldn't fail all? \n            // Let's stick to safe behavior: require !hashExists. The backend should filter before sending.\n        }\n        require(!hashExists[_dataHash], \"Event with this hash already exists\");\n\n        uint256 eventIndex = events.length;\n\n        events.push(FlightEvent({\n            flightId: _flightId,\n            eventType: _eventType,\n            timestamp: _timestamp,\n            actor: _actor,\n            dataHash: _dataHash,\n            blockNumber: block.number,\n            recordedAt: block.timestamp\n        }));\n\n        flightEventIndices[_flightId].push(eventIndex);\n        hashExists[_dataHash] = true;\n        totalEventsRecorded++;\n\n        emit EventRecorded(\n            eventIndex,\n            _flightId,\n            _eventType,\n            _timestamp,\n            _dataHash,\n            block.number\n        );\n\n        return eventIndex;\n    }\n\n    // ============ View Functions ============\n\n    /**\n     * @dev Get the total number of events recorded\n     * @return Total number of events\n     */\n    function getTotalEvents() external view returns (uint256) {\n        return events.length;\n    }\n\n    /**\n     * @dev Get event count for a specific flight\n     * @param _flightId Flight identifier\n     * @return Number of events for this flight\n     */\n    function getFlightEventCount(string memory _flightId) external view returns (uint256) {\n        return flightEventIndices[_flightId].length;\n    }\n\n    /**\n     * @dev Get event by index\n     * @param _index Event index\n     * @return flightId Flight identifier\n     * @return eventType Type of event\n     * @return timestamp Unix timestamp\n     * @return actor Actor responsible\n     * @return dataHash Hash of event data\n     * @return blockNumber Block number when recorded\n     * @return recordedAt Timestamp when recorded\n     */\n    function getEvent(uint256 _index) external view returns (\n        string memory flightId,\n        string memory eventType,\n        uint256 timestamp,\n        string memory actor,\n        bytes32 dataHash,\n        uint256 blockNumber,\n        uint256 recordedAt\n    ) {\n        require(_index < events.length, \"Event index out of bounds\");\n        FlightEvent storage evt = events[_index];\n        return (\n            evt.flightId,\n            evt.eventType,\n            evt.timestamp,\n            evt.actor,\n            evt.dataHash,\n            evt.blockNumber,\n            evt.recordedAt\n        );\n    }\n\n    /**\n     * @dev Get all event indices for a flight\n     * @param _flightId Flight identifier\n     * @return Array of event indices\n     */\n    function getFlightEventIndices(string memory _flightId) external view returns (uint256[] memory) {\n        return flightEventIndices[_flightId];\n    }\n\n    /**\n     * @dev Verify if a data hash exists on-chain\n     * @param _dataHash Hash to verify\n     * @return True if hash exists\n     */\n    function verifyHash(bytes32 _dataHash) external view returns (bool) {\n        return hashExists[_dataHash];\n    }\n\n    /**\n     * @dev Get events for a flight within a range\n     * @param _flightId Flight identifier\n     * @param _start Start index\n     * @param _count Number of events to return\n     * @return Array of event data\n     */\n    function getFlightEvents(\n        string memory _flightId,\n        uint256 _start,\n        uint256 _count\n    ) external view returns (FlightEvent[] memory) {\n        uint256[] storage indices = flightEventIndices[_flightId];\n        require(_start < indices.length, \"Start index out of bounds\");\n        \n        uint256 end = _start + _count;\n        if (end > indices.length) {\n            end = indices.length;\n        }\n        \n        FlightEvent[] memory result = new FlightEvent[](end - _start);\n        for (uint256 i = _start; i < end; i++) {\n            result[i - _start] = events[indices[i]];\n        }\n        \n        return result;\n    }\n}\n",
  "sourcePath": "/Users/parthgohil/Documents/Coding Projects/FlightChain/blockchain/contracts/FlightEventRegistry.sol",
  "compiler": {
    "name": "solc",
    "version": "0.8.19+commit.7dd6d404.Emscripten.clang"
  },
  "schemaVersion": "3.4.16",
  "updatedAt": "2025-12-10T18:43:35.235Z",
  "networkType": "ethereum",
  "devdoc": {
    "details": "Stores flight event hashes on-chain for verification purposes. Full event data remains off-chain in the MySQL database. Only the backend service can write to this contract.",
    "kind": "dev",
    "methods": {
      "authorizeBackend(address)": {
        "details": "Authorize a backend address to record events",
        "params": {
          "_backend": "Address of the backend service"
        }
      },
      "getEvent(uint256)": {
        "details": "Get event by index",
        "params": {
          "_index": "Event index"
        },
        "returns": {
          "actor": "Actor responsible",
          "blockNumber": "Block number when recorded",
          "dataHash": "Hash of event data",
          "eventType": "Type of event",
          "flightId": "Flight identifier",
          "recordedAt": "Timestamp when recorded",
          "timestamp": "Unix timestamp"
        }
      },
      "getFlightEventCount(string)": {
        "details": "Get event count for a specific flight",
        "params": {
          "_flightId": "Flight identifier"
        },
        "returns": {
          "_0": "Number of events for this flight"
        }
      },
      "getFlightEventIndices(string)": {
        "details": "Get all event indices for a flight",
        "params": {
          "_flightId": "Flight identifier"
        },
        "returns": {
          "_0": "Array of event indices"
        }
      },
      "getFlightEvents(string,uint256,uint256)": {
        "details": "Get events for a flight within a range",
        "params": {
          "_count": "Number of events to return",
          "_flightId": "Flight identifier",
          "_start": "Start index"
        },
        "returns": {
          "_0": "Array of event data"
        }
      },
      "getTotalEvents()": {
        "details": "Get the total number of events recorded",
        "returns": {
          "_0": "Total number of events"
        }
      },
      "recordEvent(string,string,uint256,string,bytes32)": {
        "details": "Record a new flight event on-chain",
        "params": {
          "_actor": "Actor responsible for the event",
          "_dataHash": "SHA256 hash of the full event payload",
          "_eventType": "Type of event",
          "_flightId": "Flight identifier",
          "_timestamp": "Unix timestamp of the event"
        },
        "returns": {
          "_0": "eventIndex The index of the recorded event  NOTE: Public function - any user can record events. This allows MetaMask users to pay for their own gas when recording flight events."
        }
      },
      "recordEvents(string[],string[],uint256[],string[],bytes32[])": {
        "details": "Record multiple flight events in a single transaction",
        "params": {
          "_actors": "Array of actors",
          "_dataHashes": "Array of data hashes",
          "_eventTypes": "Array of event types",
          "_flightIds": "Array of flight identifiers",
          "_timestamps": "Array of unix timestamps"
        },
        "returns": {
          "_0": "count Number of events recorded"
        }
      },
      "transferOwnership(address)": {
        "details": "Transfer ownership of the contract",
        "params": {
          "_newOwner": "Address of the new owner"
        }
      },
      "verifyHash(bytes32)": {
        "details": "Verify if a data hash exists on-chain",
        "params": {
          "_dataHash": "Hash to verify"
        },
        "returns": {
          "_0": "True if hash exists"
        }
      }
    },
    "title": "FlightEventRegistry",
    "version": 1
  },
  "userdoc": {
    "kind": "user",
    "methods": {},
    "version": 1
  }
}