{
  "contractName": "FlightEventRegistry",
  "abi": [
    {
      "inputs": [],
      "stateMutability": "nonpayable",
      "type": "constructor"
    },
    {
      "anonymous": false,
      "inputs": [
        {
          "indexed": true,
          "internalType": "address",
          "name": "backend",
          "type": "address"
        }
      ],
      "name": "BackendAuthorized",
      "type": "event"
    },
    {
      "anonymous": false,
      "inputs": [
        {
          "indexed": true,
          "internalType": "uint256",
          "name": "eventIndex",
          "type": "uint256"
        },
        {
          "indexed": false,
          "internalType": "string",
          "name": "flightId",
          "type": "string"
        },
        {
          "indexed": false,
          "internalType": "string",
          "name": "eventType",
          "type": "string"
        },
        {
          "indexed": false,
          "internalType": "uint256",
          "name": "timestamp",
          "type": "uint256"
        },
        {
          "indexed": false,
          "internalType": "bytes32",
          "name": "dataHash",
          "type": "bytes32"
        },
        {
          "indexed": false,
          "internalType": "uint256",
          "name": "blockNumber",
          "type": "uint256"
        }
      ],
      "name": "EventRecorded",
      "type": "event"
    },
    {
      "anonymous": false,
      "inputs": [
        {
          "indexed": true,
          "internalType": "address",
          "name": "previousOwner",
          "type": "address"
        },
        {
          "indexed": true,
          "internalType": "address",
          "name": "newOwner",
          "type": "address"
        }
      ],
      "name": "OwnershipTransferred",
      "type": "event"
    },
    {
      "inputs": [],
      "name": "authorizedBackend",
      "outputs": [
        {
          "internalType": "address",
          "name": "",
          "type": "address"
        }
      ],
      "stateMutability": "view",
      "type": "function"
    },
    {
      "inputs": [
        {
          "internalType": "uint256",
          "name": "",
          "type": "uint256"
        }
      ],
      "name": "events",
      "outputs": [
        {
          "internalType": "string",
          "name": "flightId",
          "type": "string"
        },
        {
          "internalType": "string",
          "name": "eventType",
          "type": "string"
        },
        {
          "internalType": "uint256",
          "name": "timestamp",
          "type": "uint256"
        },
        {
          "internalType": "string",
          "name": "actor",
          "type": "string"
        },
        {
          "internalType": "bytes32",
          "name": "dataHash",
          "type": "bytes32"
        },
        {
          "internalType": "uint256",
          "name": "blockNumber",
          "type": "uint256"
        },
        {
          "internalType": "uint256",
          "name": "recordedAt",
          "type": "uint256"
        }
      ],
      "stateMutability": "view",
      "type": "function"
    },
    {
      "inputs": [
        {
          "internalType": "string",
          "name": "",
          "type": "string"
        },
        {
          "internalType": "uint256",
          "name": "",
          "type": "uint256"
        }
      ],
      "name": "flightEventIndices",
      "outputs": [
        {
          "internalType": "uint256",
          "name": "",
          "type": "uint256"
        }
      ],
      "stateMutability": "view",
      "type": "function"
    },
    {
      "inputs": [
        {
          "internalType": "bytes32",
          "name": "",
          "type": "bytes32"
        }
      ],
      "name": "hashExists",
      "outputs": [
        {
          "internalType": "bool",
          "name": "",
          "type": "bool"
        }
      ],
      "stateMutability": "view",
      "type": "function"
    },
    {
      "inputs": [],
      "name": "owner",
      "outputs": [
        {
          "internalType": "address",
          "name": "",
          "type": "address"
        }
      ],
      "stateMutability": "view",
      "type": "function"
    },
    {
      "inputs": [],
      "name": "totalEventsRecorded",
      "outputs": [
        {
          "internalType": "uint256",
          "name": "",
          "type": "uint256"
        }
      ],
      "stateMutability": "view",
      "type": "function"
    },
    {
      "inputs": [
        {
          "internalType": "address",
          "name": "_backend",
          "type": "address"
        }
      ],
      "name": "authorizeBackend",
      "outputs": [],
      "stateMutability": "nonpayable",
      "type": "function"
    },
    {
      "inputs": [
        {
          "internalType": "address",
          "name": "_newOwner",
          "type": "address"
        }
      ],
      "name": "transferOwnership",
      "outputs": [],
      "stateMutability": "nonpayable",
      "type": "function"
    },
    {
      "inputs": [
        {
          "internalType": "string",
          "name": "_flightId",
          "type": "string"
        },
        {
          "internalType": "string",
          "name": "_eventType",
          "type": "string"
        },
        {
          "internalType": "uint256",
          "name": "_timestamp",
          "type": "uint256"
        },
        {
          "internalType": "string",
          "name": "_actor",
          "type": "string"
        },
        {
          "internalType": "bytes32",
          "name": "_dataHash",
          "type": "bytes32"
        }
      ],
      "name": "recordEvent",
      "outputs": [
        {
          "internalType": "uint256",
          "name": "",
          "type": "uint256"
        }
      ],
      "stateMutability": "nonpayable",
      "type": "function"
    },
    {
      "inputs": [],
      "name": "getTotalEvents",
      "outputs": [
        {
          "internalType": "uint256",
          "name": "",
          "type": "uint256"
        }
      ],
      "stateMutability": "view",
      "type": "function"
    },
    {
      "inputs": [
        {
          "internalType": "string",
          "name": "_flightId",
          "type": "string"
        }
      ],
      "name": "getFlightEventCount",
      "outputs": [
        {
          "internalType": "uint256",
          "name": "",
          "type": "uint256"
        }
      ],
      "stateMutability": "view",
      "type": "function"
    },
    {
      "inputs": [
        {
          "internalType": "uint256",
          "name": "_index",
          "type": "uint256"
        }
      ],
      "name": "getEvent",
      "outputs": [
        {
          "internalType": "string",
          "name": "flightId",
          "type": "string"
        },
        {
          "internalType": "string",
          "name": "eventType",
          "type": "string"
        },
        {
          "internalType": "uint256",
          "name": "timestamp",
          "type": "uint256"
        },
        {
          "internalType": "string",
          "name": "actor",
          "type": "string"
        },
        {
          "internalType": "bytes32",
          "name": "dataHash",
          "type": "bytes32"
        },
        {
          "internalType": "uint256",
          "name": "blockNumber",
          "type": "uint256"
        },
        {
          "internalType": "uint256",
          "name": "recordedAt",
          "type": "uint256"
        }
      ],
      "stateMutability": "view",
      "type": "function"
    },
    {
      "inputs": [
        {
          "internalType": "string",
          "name": "_flightId",
          "type": "string"
        }
      ],
      "name": "getFlightEventIndices",
      "outputs": [
        {
          "internalType": "uint256[]",
          "name": "",
          "type": "uint256[]"
        }
      ],
      "stateMutability": "view",
      "type": "function"
    },
    {
      "inputs": [
        {
          "internalType": "bytes32",
          "name": "_dataHash",
          "type": "bytes32"
        }
      ],
      "name": "verifyHash",
      "outputs": [
        {
          "internalType": "bool",
          "name": "",
          "type": "bool"
        }
      ],
      "stateMutability": "view",
      "type": "function"
    },
    {
      "inputs": [
        {
          "internalType": "string",
          "name": "_flightId",
          "type": "string"
        },
        {
          "internalType": "uint256",
          "name": "_start",
          "type": "uint256"
        },
        {
          "internalType": "uint256",
          "name": "_count",
          "type": "uint256"
        }
      ],
      "name": "getFlightEvents",
      "outputs": [
        {
          "components": [
            {
              "internalType": "string",
              "name": "flightId",
              "type": "string"
            },
            {
              "internalType": "string",
              "name": "eventType",
              "type": "string"
            },
            {
              "internalType": "uint256",
              "name": "timestamp",
              "type": "uint256"
            },
            {
              "internalType": "string",
              "name": "actor",
              "type": "string"
            },
            {
              "internalType": "bytes32",
              "name": "dataHash",
              "type": "bytes32"
            },
            {
              "internalType": "uint256",
              "name": "blockNumber",
              "type": "uint256"
            },
            {
              "internalType": "uint256",
              "name": "recordedAt",
              "type": "uint256"
            }
          ],
          "internalType": "struct FlightEventRegistry.FlightEvent[]",
          "name": "",
          "type": "tuple[]"
        }
      ],
      "stateMutability": "view",
      "type": "function"
    }
  ],
  "bytecode": "0x608060405234801561001057600080fd5b5060008054336001600160a01b031991821681178355600180549092161790556116bb90819061004090396000f3fe608060405234801561001057600080fd5b50600436106100f45760003560e01c80637677c57b11610097578063bd4fa79f11610066578063bd4fa79f14610220578063c485ab1e14610240578063ef020f4a14610255578063f2fde38b1461027857600080fd5b80637677c57b146101a75780637e5f58fc146101ba5780638da5cb5b146101da578063b535b5c3146101ed57600080fd5b806349430bcf116100d357806349430bcf1461014e57806352534bc714610179578063616069401461018c5780636d1884e01461019457600080fd5b8062590ee2146100f95780630b791430146101155780633a5d2a201461013b575b600080fd5b61010260055481565b6040519081526020015b60405180910390f35b610128610123366004611018565b61028b565b60405161010c9796959493929190611081565b610102610149366004611183565b610475565b600154610161906001600160a01b031681565b6040516001600160a01b03909116815260200161010c565b61010261018736600461121d565b610796565b600254610102565b6101286101a2366004611018565b6107be565b6101026101b536600461125a565b610a21565b6101cd6101c836600461129f565b610a61565b60405161010c91906112ed565b600054610161906001600160a01b031681565b6102106101fb366004611018565b60046020526000908152604090205460ff1681565b604051901515815260200161010c565b61023361022e36600461121d565b610e03565b60405161010c91906113b7565b61025361024e3660046113fb565b610e73565b005b610210610263366004611018565b60009081526004602052604090205460ff1690565b6102536102863660046113fb565b610f3d565b6002818154811061029b57600080fd5b90600052602060002090600702016000915090508060000180546102be9061142b565b80601f01602080910402602001604051908101604052809291908181526020018280546102ea9061142b565b80156103375780601f1061030c57610100808354040283529160200191610337565b820191906000526020600020905b81548152906001019060200180831161031a57829003601f168201915b50505050509080600101805461034c9061142b565b80601f01602080910402602001604051908101604052809291908181526020018280546103789061142b565b80156103c55780601f1061039a576101008083540402835291602001916103c5565b820191906000526020600020905b8154815290600101906020018083116103a857829003601f168201915b5050505050908060020154908060030180546103e09061142b565b80601f016020809104026020016040519081016040528092919081815260200182805461040c9061142b565b80156104595780601f1061042e57610100808354040283529160200191610459565b820191906000526020600020905b81548152906001019060200180831161043c57829003601f168201915b5050505050908060040154908060050154908060060154905087565b6000808651116104cc5760405162461bcd60e51b815260206004820152601960248201527f466c696768742049442063616e6e6f7420626520656d7074790000000000000060448201526064015b60405180910390fd5b600085511161051d5760405162461bcd60e51b815260206004820152601a60248201527f4576656e7420747970652063616e6e6f7420626520656d70747900000000000060448201526064016104c3565b600084116105615760405162461bcd60e51b81526020600482015260116024820152700496e76616c69642074696d657374616d7607c1b60448201526064016104c3565b816105ae5760405162461bcd60e51b815260206004820152601960248201527f4461746120686173682063616e6e6f7420626520656d7074790000000000000060448201526064016104c3565b60008281526004602052604090205460ff16156106195760405162461bcd60e51b815260206004820152602360248201527f4576656e7420776974682074686973206861736820616c72656164792065786960448201526273747360e81b60648201526084016104c3565b600280546040805160e0810182528981526020810189905290810187905260608101869052608081018590524360a08201524260c08201526001820183556000929092528151909190600783027f405787fa12a823e0f2b7631cc41b3ba8828b3321ca811111fa75cd3aa3bb5ace0190819061069590826114b4565b50602082015160018201906106aa90826114b4565b5060408201516002820155606082015160038201906106c990826114b4565b506080820151816004015560a0820151816005015560c0820151816006015550506003876040516106fa9190611574565b908152604080516020928190038301902080546001808201835560009283528483209091018590558682526004909352908120805460ff19169092179091556005805491610747836115a6565b9190505550807febd82a22819416a1038895b79ed8e08c941e5f70ed31056dccad3f1e26aec98488888887436040516107849594939291906115bf565b60405180910390a29695505050505050565b60006003826040516107a89190611574565b9081526040519081900360200190205492915050565b606080600060606000806000600280549050881061081e5760405162461bcd60e51b815260206004820152601960248201527f4576656e7420696e646578206f7574206f6620626f756e64730000000000000060448201526064016104c3565b60006002898154811061083357610833611602565b90600052602060002090600702019050806000018160010182600201548360030184600401548560050154866006015486805461086f9061142b565b80601f016020809104026020016040519081016040528092919081815260200182805461089b9061142b565b80156108e85780601f106108bd576101008083540402835291602001916108e8565b820191906000526020600020905b8154815290600101906020018083116108cb57829003601f168201915b505050505096508580546108fb9061142b565b80601f01602080910402602001604051908101604052809291908181526020018280546109279061142b565b80156109745780601f1061094957610100808354040283529160200191610974565b820191906000526020600020905b81548152906001019060200180831161095757829003601f168201915b505050505095508380546109879061142b565b80601f01602080910402602001604051908101604052809291908181526020018280546109b39061142b565b8015610a005780601f106109d557610100808354040283529160200191610a00565b820191906000526020600020905b8154815290600101906020018083116109e357829003601f168201915b50505050509350975097509750975097509750975050919395979092949650565b81516020818401810180516003825292820191850191909120919052805482908110610a4c57600080fd5b90600052602060002001600091509150505481565b60606000600385604051610a759190611574565b90815260405190819003602001902080549091508410610ad75760405162461bcd60e51b815260206004820152601960248201527f537461727420696e646578206f7574206f6620626f756e64730000000000000060448201526064016104c3565b6000610ae38486611618565b8254909150811115610af3575080545b6000610aff8683611631565b67ffffffffffffffff811115610b1757610b176110e0565b604051908082528060200260200182016040528015610b8b57816020015b610b786040518060e00160405280606081526020016060815260200160008152602001606081526020016000801916815260200160008152602001600081525090565b815260200190600190039081610b355790505b509050855b82811015610df8576002848281548110610bac57610bac611602565b906000526020600020015481548110610bc757610bc7611602565b90600052602060002090600702016040518060e0016040529081600082018054610bf09061142b565b80601f0160208091040260200160405190810160405280929190818152602001828054610c1c9061142b565b8015610c695780601f10610c3e57610100808354040283529160200191610c69565b820191906000526020600020905b815481529060010190602001808311610c4c57829003601f168201915b50505050508152602001600182018054610c829061142b565b80601f0160208091040260200160405190810160405280929190818152602001828054610cae9061142b565b8015610cfb5780601f10610cd057610100808354040283529160200191610cfb565b820191906000526020600020905b815481529060010190602001808311610cde57829003601f168201915b5050505050815260200160028201548152602001600382018054610d1e9061142b565b80601f0160208091040260200160405190810160405280929190818152602001828054610d4a9061142b565b8015610d975780601f10610d6c57610100808354040283529160200191610d97565b820191906000526020600020905b815481529060010190602001808311610d7a57829003601f168201915b5050509183525050600482015460208201526005820154604082015260069091015460609091015282610dca8984611631565b81518110610dda57610dda611602565b60200260200101819052508080610df0906115a6565b915050610b90565b509695505050505050565b6060600382604051610e159190611574565b9081526040805191829003602090810183208054808302850183019093528284529190830182828015610e6757602002820191906000526020600020905b815481526020019060010190808311610e53575b50505050509050919050565b6000546001600160a01b03163314610e9d5760405162461bcd60e51b81526004016104c390611644565b6001600160a01b038116610ef35760405162461bcd60e51b815260206004820152601760248201527f496e76616c6964206261636b656e64206164647265737300000000000000000060448201526064016104c3565b600180546001600160a01b0319166001600160a01b0383169081179091556040517fcaac1cded5f66c118ba915f0fc60cd20a0924fcf956320b5230e70c8d5a773ca90600090a250565b6000546001600160a01b03163314610f675760405162461bcd60e51b81526004016104c390611644565b6001600160a01b038116610fbd5760405162461bcd60e51b815260206004820152601960248201527f496e76616c6964206e6577206f776e657220616464726573730000000000000060448201526064016104c3565b600080546040516001600160a01b03808516939216917f8be0079c531659141344cd1fd0a4f28419497f9722a3daafe3b4186f6b6457e091a3600080546001600160a01b0319166001600160a01b0392909216919091179055565b60006020828403121561102a57600080fd5b5035919050565b60005b8381101561104c578181015183820152602001611034565b50506000910152565b6000815180845261106d816020860160208601611031565b601f01601f19169290920160200192915050565b60e08152600061109460e083018a611055565b82810360208401526110a6818a611055565b905087604084015282810360608401526110c08188611055565b6080840196909652505060a081019290925260c090910152949350505050565b634e487b7160e01b600052604160045260246000fd5b600082601f83011261110757600080fd5b813567ffffffffffffffff80821115611122576111226110e0565b604051601f8301601f19908116603f0116810190828211818310171561114a5761114a6110e0565b8160405283815286602085880101111561116357600080fd5b836020870160208301376000602085830101528094505050505092915050565b600080600080600060a0868803121561119b57600080fd5b853567ffffffffffffffff808211156111b357600080fd5b6111bf89838a016110f6565b965060208801359150808211156111d557600080fd5b6111e189838a016110f6565b95506040880135945060608801359150808211156111fe57600080fd5b5061120b888289016110f6565b95989497509295608001359392505050565b60006020828403121561122f57600080fd5b813567ffffffffffffffff81111561124657600080fd5b611252848285016110f6565b949350505050565b6000806040838503121561126d57600080fd5b823567ffffffffffffffff81111561128457600080fd5b611290858286016110f6565b95602094909401359450505050565b6000806000606084860312156112b457600080fd5b833567ffffffffffffffff8111156112cb57600080fd5b6112d7868287016110f6565b9660208601359650604090950135949350505050565b60006020808301818452808551808352604092508286019150828160051b87010184880160005b838110156113a957603f19898403018552815160e0815181865261133a82870182611055565b915050888201518582038a8701526113528282611055565b9150508782015188860152606080830151868303828801526113748382611055565b6080858101519089015260a0808601519089015260c09485015194909701939093525050509386019390860190600101611314565b509098975050505050505050565b6020808252825182820181905260009190848201906040850190845b818110156113ef578351835292840192918401916001016113d3565b50909695505050505050565b60006020828403121561140d57600080fd5b81356001600160a01b038116811461142457600080fd5b9392505050565b600181811c9082168061143f57607f821691505b60208210810361145f57634e487b7160e01b600052602260045260246000fd5b50919050565b601f8211156114af57600081815260208120601f850160051c8101602086101561148c5750805b601f850160051c820191505b818110156114ab57828155600101611498565b5050505b505050565b815167ffffffffffffffff8111156114ce576114ce6110e0565b6114e2816114dc845461142b565b84611465565b602080601f83116001811461151757600084156114ff5750858301515b600019600386901b1c1916600185901b1785556114ab565b600085815260208120601f198616915b8281101561154657888601518255948401946001909101908401611527565b50858210156115645787850151600019600388901b60f8161c191681555b5050505050600190811b01905550565b60008251611586818460208701611031565b9190910192915050565b634e487b7160e01b600052601160045260246000fd5b6000600182016115b8576115b8611590565b5060010190565b60a0815260006115d260a0830188611055565b82810360208401526115e48188611055565b60408401969096525050606081019290925260809091015292915050565b634e487b7160e01b600052603260045260246000fd5b8082018082111561162b5761162b611590565b92915050565b8181038181111561162b5761162b611590565b60208082526021908201527f4f6e6c79206f776e65722063616e2063616c6c20746869732066756e6374696f6040820152603760f91b60608201526080019056fea2646970667358221220b11aa9ed2eeadb39ff50521377fadae013050a4bf1ba83cb9760e5363191ed6964736f6c63430008130033",
  "immutableReferences": {},
  "source": "// SPDX-License-Identifier: MIT\npragma solidity ^0.8.19;\n\n/**\n * @title FlightEventRegistry\n * @dev Stores flight event hashes on-chain for verification purposes.\n * Full event data remains off-chain in the MySQL database.\n * Only the backend service can write to this contract.\n */\ncontract FlightEventRegistry {\n    // ============ Structs ============\n\n    struct FlightEvent {\n        string flightId;        // Flight identifier (e.g., \"UA123\")\n        string eventType;       // Event type (e.g., \"DEPARTURE\", \"ARRIVAL\", \"GATE_CHANGE\")\n        uint256 timestamp;      // Unix timestamp of the event\n        string actor;           // Actor responsible (e.g., \"ATC\", \"AIRLINE\", \"SYSTEM\")\n        bytes32 dataHash;       // SHA256 hash of the full event payload\n        uint256 blockNumber;    // Block number when recorded\n        uint256 recordedAt;     // Timestamp when recorded on-chain\n    }\n\n    // ============ State Variables ============\n\n    address public owner;\n    address public authorizedBackend;\n    \n    FlightEvent[] public events;\n    mapping(string => uint256[]) public flightEventIndices;\n    mapping(bytes32 => bool) public hashExists;\n    \n    uint256 public totalEventsRecorded;\n\n    // ============ Events ============\n\n    event EventRecorded(\n        uint256 indexed eventIndex,\n        string flightId,\n        string eventType,\n        uint256 timestamp,\n        bytes32 dataHash,\n        uint256 blockNumber\n    );\n\n    event BackendAuthorized(address indexed backend);\n    event OwnershipTransferred(address indexed previousOwner, address indexed newOwner);\n\n    // ============ Modifiers ============\n\n    modifier onlyOwner() {\n        require(msg.sender == owner, \"Only owner can call this function\");\n        _;\n    }\n\n    modifier onlyAuthorized() {\n        require(\n            msg.sender == owner || msg.sender == authorizedBackend,\n            \"Not authorized to record events\"\n        );\n        _;\n    }\n\n    // ============ Constructor ============\n\n    constructor() {\n        owner = msg.sender;\n        authorizedBackend = msg.sender; // Initially, owner is the authorized backend\n    }\n\n    // ============ Admin Functions ============\n\n    /**\n     * @dev Authorize a backend address to record events\n     * @param _backend Address of the backend service\n     */\n    function authorizeBackend(address _backend) external onlyOwner {\n        require(_backend != address(0), \"Invalid backend address\");\n        authorizedBackend = _backend;\n        emit BackendAuthorized(_backend);\n    }\n\n    /**\n     * @dev Transfer ownership of the contract\n     * @param _newOwner Address of the new owner\n     */\n    function transferOwnership(address _newOwner) external onlyOwner {\n        require(_newOwner != address(0), \"Invalid new owner address\");\n        emit OwnershipTransferred(owner, _newOwner);\n        owner = _newOwner;\n    }\n\n    // ============ Core Functions ============\n\n    /**\n     * @dev Record a new flight event on-chain\n     * @param _flightId Flight identifier\n     * @param _eventType Type of event\n     * @param _timestamp Unix timestamp of the event\n     * @param _actor Actor responsible for the event\n     * @param _dataHash SHA256 hash of the full event payload\n     * @return eventIndex The index of the recorded event\n     * \n     * NOTE: Public function - any user can record events. This allows MetaMask users\n     * to pay for their own gas when recording flight events.\n     */\n    function recordEvent(\n        string memory _flightId,\n        string memory _eventType,\n        uint256 _timestamp,\n        string memory _actor,\n        bytes32 _dataHash\n    ) external returns (uint256) {\n        require(bytes(_flightId).length > 0, \"Flight ID cannot be empty\");\n        require(bytes(_eventType).length > 0, \"Event type cannot be empty\");\n        require(_timestamp > 0, \"Invalid timestamp\");\n        require(_dataHash != bytes32(0), \"Data hash cannot be empty\");\n        require(!hashExists[_dataHash], \"Event with this hash already exists\");\n\n        uint256 eventIndex = events.length;\n\n        events.push(FlightEvent({\n            flightId: _flightId,\n            eventType: _eventType,\n            timestamp: _timestamp,\n            actor: _actor,\n            dataHash: _dataHash,\n            blockNumber: block.number,\n            recordedAt: block.timestamp\n        }));\n\n        flightEventIndices[_flightId].push(eventIndex);\n        hashExists[_dataHash] = true;\n        totalEventsRecorded++;\n\n        emit EventRecorded(\n            eventIndex,\n            _flightId,\n            _eventType,\n            _timestamp,\n            _dataHash,\n            block.number\n        );\n\n        return eventIndex;\n    }\n\n    // ============ View Functions ============\n\n    /**\n     * @dev Get the total number of events recorded\n     * @return Total number of events\n     */\n    function getTotalEvents() external view returns (uint256) {\n        return events.length;\n    }\n\n    /**\n     * @dev Get event count for a specific flight\n     * @param _flightId Flight identifier\n     * @return Number of events for this flight\n     */\n    function getFlightEventCount(string memory _flightId) external view returns (uint256) {\n        return flightEventIndices[_flightId].length;\n    }\n\n    /**\n     * @dev Get event by index\n     * @param _index Event index\n     * @return flightId Flight identifier\n     * @return eventType Type of event\n     * @return timestamp Unix timestamp\n     * @return actor Actor responsible\n     * @return dataHash Hash of event data\n     * @return blockNumber Block number when recorded\n     * @return recordedAt Timestamp when recorded\n     */\n    function getEvent(uint256 _index) external view returns (\n        string memory flightId,\n        string memory eventType,\n        uint256 timestamp,\n        string memory actor,\n        bytes32 dataHash,\n        uint256 blockNumber,\n        uint256 recordedAt\n    ) {\n        require(_index < events.length, \"Event index out of bounds\");\n        FlightEvent storage evt = events[_index];\n        return (\n            evt.flightId,\n            evt.eventType,\n            evt.timestamp,\n            evt.actor,\n            evt.dataHash,\n            evt.blockNumber,\n            evt.recordedAt\n        );\n    }\n\n    /**\n     * @dev Get all event indices for a flight\n     * @param _flightId Flight identifier\n     * @return Array of event indices\n     */\n    function getFlightEventIndices(string memory _flightId) external view returns (uint256[] memory) {\n        return flightEventIndices[_flightId];\n    }\n\n    /**\n     * @dev Verify if a data hash exists on-chain\n     * @param _dataHash Hash to verify\n     * @return True if hash exists\n     */\n    function verifyHash(bytes32 _dataHash) external view returns (bool) {\n        return hashExists[_dataHash];\n    }\n\n    /**\n     * @dev Get events for a flight within a range\n     * @param _flightId Flight identifier\n     * @param _start Start index\n     * @param _count Number of events to return\n     * @return Array of event data\n     */\n    function getFlightEvents(\n        string memory _flightId,\n        uint256 _start,\n        uint256 _count\n    ) external view returns (FlightEvent[] memory) {\n        uint256[] storage indices = flightEventIndices[_flightId];\n        require(_start < indices.length, \"Start index out of bounds\");\n        \n        uint256 end = _start + _count;\n        if (end > indices.length) {\n            end = indices.length;\n        }\n        \n        FlightEvent[] memory result = new FlightEvent[](end - _start);\n        for (uint256 i = _start; i < end; i++) {\n            result[i - _start] = events[indices[i]];\n        }\n        \n        return result;\n    }\n}\n",
  "sourcePath": "/Users/parthgohil/Documents/Coding Projects/FlightChain/blockchain/contracts/FlightEventRegistry.sol",
  "compiler": {
    "name": "solc",
    "version": "0.8.19+commit.7dd6d404.Emscripten.clang"
  },
  "schemaVersion": "3.4.16",
  "updatedAt": "2025-12-07T21:30:25.456Z",
  "devdoc": {
    "details": "Stores flight event hashes on-chain for verification purposes. Full event data remains off-chain in the MySQL database. Only the backend service can write to this contract.",
    "kind": "dev",
    "methods": {
      "authorizeBackend(address)": {
        "details": "Authorize a backend address to record events",
        "params": {
          "_backend": "Address of the backend service"
        }
      },
      "getEvent(uint256)": {
        "details": "Get event by index",
        "params": {
          "_index": "Event index"
        },
        "returns": {
          "actor": "Actor responsible",
          "blockNumber": "Block number when recorded",
          "dataHash": "Hash of event data",
          "eventType": "Type of event",
          "flightId": "Flight identifier",
          "recordedAt": "Timestamp when recorded",
          "timestamp": "Unix timestamp"
        }
      },
      "getFlightEventCount(string)": {
        "details": "Get event count for a specific flight",
        "params": {
          "_flightId": "Flight identifier"
        },
        "returns": {
          "_0": "Number of events for this flight"
        }
      },
      "getFlightEventIndices(string)": {
        "details": "Get all event indices for a flight",
        "params": {
          "_flightId": "Flight identifier"
        },
        "returns": {
          "_0": "Array of event indices"
        }
      },
      "getFlightEvents(string,uint256,uint256)": {
        "details": "Get events for a flight within a range",
        "params": {
          "_count": "Number of events to return",
          "_flightId": "Flight identifier",
          "_start": "Start index"
        },
        "returns": {
          "_0": "Array of event data"
        }
      },
      "getTotalEvents()": {
        "details": "Get the total number of events recorded",
        "returns": {
          "_0": "Total number of events"
        }
      },
      "recordEvent(string,string,uint256,string,bytes32)": {
        "details": "Record a new flight event on-chain",
        "params": {
          "_actor": "Actor responsible for the event",
          "_dataHash": "SHA256 hash of the full event payload",
          "_eventType": "Type of event",
          "_flightId": "Flight identifier",
          "_timestamp": "Unix timestamp of the event"
        },
        "returns": {
          "_0": "eventIndex The index of the recorded event  NOTE: Public function - any user can record events. This allows MetaMask users to pay for their own gas when recording flight events."
        }
      },
      "transferOwnership(address)": {
        "details": "Transfer ownership of the contract",
        "params": {
          "_newOwner": "Address of the new owner"
        }
      },
      "verifyHash(bytes32)": {
        "details": "Verify if a data hash exists on-chain",
        "params": {
          "_dataHash": "Hash to verify"
        },
        "returns": {
          "_0": "True if hash exists"
        }
      }
    },
    "title": "FlightEventRegistry",
    "version": 1
  },
  "userdoc": {
    "kind": "user",
    "methods": {},
    "version": 1
  }
}